:020000040800F2
:10000000B0060020D5000008B51B00085D120008EE
:1000100000000000000000000000000000000000E0
:100020000000000000000000000000002720000881
:100030000000000000000000491D00082920000801
:10004000E7000008E7000008E7000008E7000008F4
:10005000E70000084D05000859050008650500087F
:1000600000000000B1040008450500080000000081
:10007000E7000008DD200008E7000008000000009D
:1000800015210008E70000080000000059200008C2
:100090000000000085200008B1200008E7000008EB
:1000A00000000000E7000008E70000084121000808
:1000B0005121000800000000E700000800000000D7
:1000C0000348854600F08EF8004800470902000802
:1000D000B00600200448804704480047FEE7FEE7DA
:1000E000FEE7FEE7FEE7FEE72D200008C10000085E
:1000F00030B50B46014600202022012409E00D46C0
:10010000D5409D4205D31D469540491B2546954047
:1001100040191546521E002DF1DC30BDF0B51FB45C
:100120000646002082B005464024019100901BE065
:10013000019922460F46304600F042F8049A059B8A
:10014000801A994110D310461946224600F028F82B
:10015000361A8F410197224601200021009F00F0AE
:100160001FF838184D4100902046641E0028DFDC3F
:10017000019B00982946324607B0F0BDD2B201E09B
:100180000270401C491EFBD270470022F6E710B5F2
:1001900013460A4604461946FFF7F0FF204610BDF5
:1001A00010B5202A04DB0146203A9140002010BD02
:1001B000914020239C1A0346E3401943904010BD10
:1001C00010B5202A04DB0846203AD040002110BD9B
:1001D0000B46D340D0402024A21A91400843194630
:1001E00010BD0000064C0125064E05E0E36807CC73
:1001F0002B430C3C98471034B442F7D3FFF764FF0D
:10020000783200089832000870B50125ED06002408
:1002100006E0A0002858A100064A5050601CC4B255
:10022000302CF6DB012040070349886002F056FBC2
:10023000002070BD0000002000ED00E000207047AD
:1002400010B50F4801F004FE04460D484078002820
:100250000FD0022802D004280FD106E0012000F0C0
:100260001DF8002000F02FF807E0002000F016F83D
:1002700003E0012000F027F800BF00BF10BD000020
:10028000A402002010B5052003490870084601F0BB
:100290007BFE002010BD0000A402002010B5044623
:1002A000012C01D9012010BD002C01D0012000E05B
:1002B00000200146032000F05FFB002801D0012050
:1002C000F1E70020EFE710B50446012C01D9012029
:1002D00010BD002C01D0012000E0002001460420C8
:1002E00000F04AFB002801D00120F1E70020EFE7F1
:1002F00010B50221032000F0DFFA002805D1022109
:10030000042000F0D9FA002801D0012010BD0020FF
:10031000FCE7000010B5044600BF61480068FF21FB
:10032000013108435E49086000BF00BF00BF5C4860
:100330000068012189020840800A0028F6D0102CAC
:100340001CD004DC042C07D0082C38D10BE0182C6E
:100350001FD0302C33D127E052490988C804C00C83
:1003600001F0BEF836E04F498988C904C90C012262
:1003700052031143084601F0B3F82BE049490989BB
:10038000C904C90C012292031143084601F0A8F8E0
:1003900020E04449098AC904C90C0122D20311434F
:1003A000084601F09DF815E03E49098AC904C90CC8
:1003B0000122D2031143084601F092F80AE03949BC
:1003C000098AC904C90C0122D2031143084601F06D
:1003D00087F800BF00BF0020314989680F22120250
:1003E000914301432E4A916000BF302C3BD100BFA6
:1003F000104600680121090688431146086000BFC5
:100400000020C968490849000143D16000BF00BF0E
:10041000104600680121090608431146086000BF24
:1004200000BF00BF1E480068012149060840400E79
:100430000028F6D001201C490968814301431A4A6B
:10044000116000BF00BF00BF17480068C007C00FA1
:100450000028F8D0022001F04DF800BF01F01CF890
:100460001028FBD107E0002001F044F800BF01F0A4
:1004700013F80028FBD100200949896807221203DC
:1004800091430143064A916000BF08496143084611
:1004900000F0E6FF05496143084601F03BF810BD56
:1004A00000100240000FFF1F0020024040420F00DA
:1004B00010B500BF2148006808210840C008002886
:1004C00016D001211D4800F00FFF012810D1012195
:1004D0001A4800F0E1FE0121184800F0EBFE00BFD1
:1004E00008201649486000BF0B2000F073FA10BDC9
:1004F00000BF1248006802210840400800281AD0B6
:1005000001210E4800F0E4FE012814D101210B481E
:1005100000F0C2FE0121094800F0CCFE00BF02201D
:100520000649486000BF06480078002801D100F065
:1005300051FA01F077FD00BFD9E70000000002404A
:10054000CE00002010B501F02BFD10BD10B501212B
:10055000002000F03BF810BD10B50321022000F090
:1005600035F810BD10B50821042000F02FF810BD9B
:1005700070B504460D4600BF13480068A0431249F9
:10058000086000BF00BF08464068A043486000BF45
:10059000002D04D0012D06D0022D0FD107E02046FA
:1005A00000F0BCFE0CE0204600F0B0FE08E0204663
:1005B00000F0B4FE204600F0A9FE01E0012070BD6D
:1005C00000BF0020FBE7000000180240F8B5064617
:1005D0000F46354617E0A8000C490C58002C10D0E7
:1005E000E0680B49C9680140814201D1012100E066
:1005F0000021002905D0E06800F082FE207800F09C
:1006000069F8681CC5B2BD42E5DDF8BDF400002004
:100610000018024010B50446002C01D1012010BD85
:1006200005200007844204D1012000F0FDFE0020D7
:10063000F5E70948844204D1022000F0F5FE0020CD
:10064000EDE70648844204D1202000F0EDFE0020B2
:10065000E5E70220E3E7000000040050001400502A
:10066000024600210AE014204843064B185C9042E1
:1006700003D114204843C0187047491C1B29F2D3EA
:100680000020F9E7242B000830B502460B46002B6A
:1006900001D1012030BD302A01D30120FAE7D0007A
:1006A0000B4C01190868002801D10220F2E70C6800
:1006B000486825690540854201D1012500E00025F3
:1006C000002D01D0012000E0002018700020E1E79B
:1006D000A4290008052802D0122802D100E001E078
:1006E00000E000BF00BF7047F7B58AB00746182189
:1006F00004A8FFF74AFD302F02D301200DB0F0BD52
:100700003846FFF7ADFF0446002C01D10220F5E783
:10071000207C800045490858002806D0207C8000B5
:100720000858A04201D00420E8E7F80040494518E5
:100730002868002801D10220E0E72868FFF76AFF57
:100740000646002E01D03046D8E7686804900020A5
:10075000059006900B98002804D0012805D00228A7
:1007600009D105E00020089008E00120089005E08C
:100770000220089002E00020089000BF00BF04A9FA
:10078000286800F0D3FD002801D00320B6E701203F
:10079000284909680143274A116011460968014048
:1007A000039100BF00BF61680391A0680102090EB8
:1007B00002910104090E01911F498207120F8A5804
:1007C000019B029999408A43039999400A431A4927
:1007D00083071B0FCA5000BFE0680C99FFF7C8FEE3
:1007E0000646002E01D0304688E7E06800F088FD1C
:1007F000E06811492031096801430F4A2032116035
:1008000000BF11202056002101F0EAF911202056E6
:10081000C206D20E01219140084A116000BF207C1F
:10082000800002490C50002068E70000F40000201E
:10083000A4290008401002406018024000E100E0D6
:1008400070B586B005460E46302D02D3012006B0A5
:1008500070BDE800174944182068002801D1022023
:10086000F5E72068FFF7D6FE18216846FFF78DFCF4
:100870006068009000200190002E04D0012E05D069
:10088000022E09D105E00020049008E00120049028
:1008900005E00220049002E00020049000BF00BFA9
:1008A0006946206800F042FD002801D00320CEE711
:1008B0000020CCE7A4290008F3B5A7B00546302DE9
:1008C00002D3012029B0F0BDE80024494418206873
:1008D000002801D10220F5E72068FFF79BFE1821D0
:1008E00021A8FFF752FC606821900120229003208C
:1008F0002390002024902898002804D0012805D0B7
:10090000022809D105E00020259008E0012025906B
:1009100005E00220259002E00020259000BF00BFE6
:1009200021A9206800F002FD002801D00320C9E7BA
:1009300000BF0BA2802101A801F012FC0646002E88
:1009400009DD802E01DB7F2700E0B7B23A4601A91E
:10095000012000F0A1FB00BF0020B3E7A42900089C
:100960004750494F206F757420696E697420737504
:1009700063636573730D0A0030B502460B46302A77
:1009800001D3012030BDD000114C011908680028A6
:1009900001D10220F6E7002B04D0012B07D0022B57
:1009A00011D109E04C680868846200BF0DE00C6852
:1009B0004868A06100BF08E04C6808684569654068
:1009C000456100BF01E00120DCE700BF0020D9E75E
:1009D000A429000810B5044601210F4800F04EFC80
:1009E00002210D4800F04AFC00BF0C48406802217B
:1009F00088430A49486000BF084600F085FD084862
:100A000004700020074908700749087007490870FA
:100A100001200749087010BD00000240003001406D
:100A2000CC000020CD000020CE000020C50000201A
:100A3000C4000020F0B58BB004460D4617461421C3
:100A400006A8FFF7A2FB012D04D0022D02D0012041
:100A50000BB0F0BD02A9204600F0CAF80646002EF1
:100A600001D03046F4E703A800F01EFD6B4601AA52
:100A70003946059800F04CF80646002E01D0304665
:100A8000E6E7204600F050FD00BFE0684008400067
:100A9000E06000BF204600F043FD00200990012DDA
:100AA00000D100E01020079068468188018300880B
:100AB0000890002108A8017206A9204600F044FD14
:100AC000002801D00620C3E7204600F037FD20466D
:100AD00000F026FD00216A460820105601F0BCF8FF
:100AE0006A4608201056C206D20E01219140074ADC
:100AF000116000BF00BFE06801210843E06000BF53
:100B0000204600F016FD0020A2E7000000E100E012
:100B1000FFB585B00598002808D00698002805D0B4
:100B20000798002802D00898002802D1012009B0B7
:100B3000F0BD0699059801F02DFBFF23F533002247
:100B4000C01851415A00002301910090FFF7E6FAC6
:100B500004460D4620462946002358405940084384
:100B600001D10420E3E721490020611868410122F6
:100B7000120400230091019008460199FFF7CEFA74
:100B80000F460646012109040022881BBA4101D202
:100B90000420CCE70222002330463946FFF7BEFA94
:100BA0000019694132463B4601910090FFF7B6FAC1
:100BB000039102900023029858400399594008433A
:100BC00006D00122120402990398511A834101D2DE
:100BD0000420ACE7701E81B2079801800298401E85
:100BE00081B2089801800020A1E70000FFFF00000B
:100BF00038B505460C46002D01D1012038BD2448EA
:100C0000854208D1C01400F02BFB002C01D00D2030
:100C100020700020F2E71F48854211D102201E49B2
:100C2000C96B01431C4AD1631146C96B0140009155
:100C300000BF00BF002C01D0102020700020DDE795
:100C40001648854208D1C01300F00AFB002C01D0E1
:100C5000132020700020D1E71148854209D10120DE
:100C6000400400F0FDFA002C01D015202070002077
:100C7000C4E70C48854209D10120800400F0F0FA55
:100C8000002C01D0162020700020B7E70220B5E725
:100C9000002C0140000400400010024000200040F1
:100CA000004401400048014008B501461348814214
:100CB0000ED101208003124A12680243104B1A60C1
:100CC0001A4612680240009200BF00BF002008BD13
:100CD0000C48814210D101204004094A403AD26BAD
:100CE0000243074B403BDA631A46D26B0240009244
:100CF00000BF00BF0020EAE70220E8E7003801401B
:100D0000401002400044004010B50446002C01D1C0
:100D1000012010BD05200007844204D1012000F00D
:100D200091FB0020F5E70948844204D1022000F03D
:100D300089FB0020EDE70648844204D1202000F022
:100D400081FB0020E5E70220E3E7000000040050FB
:100D50000014005070B505460C46002D14D11748FC
:100D6000844211D11B2000F027FF01211B2000F03D
:100D7000AFFF204600F044FC204600F046FC1B205C
:100D800000F024FF002070BD012D14D10C488442D6
:100D900011D11C2000F010FF01211C2000F098FF51
:100DA000204600F02DFC204600F02FFC1C2000F017
:100DB0000DFF0020E7E70220E5E7000000380140D2
:100DC00000440040FFB504460D4600220026002BDB
:100DD00005D00998002802D00A98002802D10120E5
:100DE00004B0F0BD002115E02748006814274F43E8
:100DF000C05DA0420DD12448006814274F43C0199C
:100E00004078A84205D12048006814274F43C219F2
:100E100004E0491C1C4840688842E5D800BF002116
:100E200016E01948806814274F43C05DA0420ED1D8
:100E30001548806814274F43C019477802988742A5
:100E400005D11148806814274F43C61904E0491C96
:100E50000D48C0688842E4D800BF002A05D0002EA3
:100E600003D050687768B84201D00220B8E7104636
:100E70000830186030460830099F386057680A9873
:100E800007600020ACE700003032000830B587B0C2
:100E90000446182101A8FFF778F9002C02D101209F
:100EA00007B030BD2068FFF72FFF0546002D01D0A9
:100EB0002846F5E760680190022002900390002028
:100EC000049001200590A068069001A9206800F018
:100ED0002DFA002801D00320E2E70020E0E700001F
:100EE00030B50246462454430D4D60194024255A1E
:100EF0004224245A2C1BA3B2402B03D301254424A3
:100F0000255430BD4024245AA406A40E0155402483
:100F1000245A641CA5B24024255200BFF1E700000A
:100F20001801002030B503461C010E4D6019047BEA
:100F3000002C00D130BD8468641C8460C48885881E
:100F4000AC4206DAC58804686155C488641CC48054
:100F500001E001244473002A01D00124847300BFFE
:100F6000E8E70000A401002070470000F8B504463F
:100F70000D46284600F098FB002809D1284600F0CD
:100F800087FB002804D1284600F088FB002801D008
:100F9000012000E000200746284600F08BFB0028D7
:100FA0002CD000BF6868C6B200BFA0002549085811
:100FB000A84245D1200124494018007B002805D0D3
:100FC0003A4631462046FFF7ADFF03E03146204662
:100FD000FFF786FF002F0CD020011B494018007B33
:100FE000002806D1012146206043184A801840306D
:100FF000017131462046FFF7B7FF21E0002F1FD0D7
:1010000000BF2868009000BF6868009000BF00BF64
:10101000A0000C490858A84212D120010A494018E2
:10102000007B002805D001202101074A8918887318
:1010300006E0012146206043044A801840300171D7
:10104000F8BD0000D4000020A401002018010020F9
:10105000002246214143074BC91840310A804621EE
:101060004143C91840314A8046214143C9184031A3
:101070000A7170471801002001460A01054BD0187B
:10108000002202608280C280826002734273827397
:1010900070470000A4010020F7B582B006460F4655
:1010A000022E04D2002F02D00498002802D1012081
:1010B00005B0F0BDB0000F490C58002C01D105203F
:1010C000F6E700250EE00021204600F015F801901B
:1010D0000198002801D00198EAE7785D606000BFC0
:1010E000681C85B204988542EDDB0121204600F0A2
:1010F00003F8DDE7D400002010B50246104B04E0F1
:10110000002B01D1062010BD5B1E00290AD000BFB4
:101110001068402420408009002801D101200BE004
:10112000002009E000BF106880242040C00900288A
:1011300001D1012000E000200028E1D100BFE2E75A
:1011400040420F00FFB58DB005460F461E461C21DC
:1011500003A8FFF71AF8022D01D2002E02D10120B8
:1011600011B0F0BD0020A9003B4A50500AA80BA9BD
:101170000CAB00910190394628460F9AFFF722FEEA
:101180000446002C01D02046EAE70A98FFF78CFDC0
:101190000446002C01D02046E2E70C98FFF776FECB
:1011A0000446002C01D02046DAE70B98FFF76EFECC
:1011B0000446002C01D02046D2E70A98C1682022BC
:1011C0009143C16000BF0A984169490849004161E3
:1011D00000BF0A98C16812029143C16000BF039624
:1011E00000200490059006900C20079000200890A5
:1011F000099003A90A9800F00DFA002801D00420F4
:10120000AEE70A9801690122D20291430161416966
:1012100008229143416100BF0A98C16892021143BC
:10122000C16000BF2846FFF713FF2846FFF724FFE1
:10123000A900094A0A98505028460A99FFF78AFDE2
:101240000446002C05D00020A900034A5050204637
:1012500086E7002084E70000D400002000BFFEE7FE
:1012600008B5054909680143034A11601146096838
:101270000140009100BF08BD4010024010B54A1E59
:10128000044B9A5C825853085B004A1E014CA25CD6
:10129000835010BD402D000810B54A1E044B9A5CC7
:1012A000825802239A434B1E014CE35CC25010BD8E
:1012B000402D000810B54A1E044B9A5C8258082342
:1012C0009A434B1E014CE35CC25010BD402D0008F8
:1012D0000246481E034B185C105802231840400871
:1012E00070470000402D00080246481E034B185C62
:1012F000105808231840C00870470000402D00080F
:101300000149C8607047000000180240024949685E
:101310000143014A516070470018024002490968C0
:101320000143014A1160704700180240F0B50246BF
:101330000B46002661E00124B440196821400029D1
:101340005AD0586814680D464D436F00ED19AC43F0
:101350000D464D4345432C43146000BF5868012897
:1013600002D0586802280DD1986894680D464D4304
:101370006F00ED19AC430D464D4345432C4394603B
:1013800000BF00BF1869D4680D464D436F00ED19CA
:10139000AC430D464D4345432C43D46000BF5868D1
:1013A000022829D1FF2911D85869146A0D464D43E6
:1013B0004D434D432F017D1BAC430D464D434D43E3
:1013C0004D4345432C43146200BF15E05F69080A92
:1013D00040430C0A60430C0A60430401241A506A1B
:1013E000A0430C0A64430D0A6C430D0A6C437C4312
:1013F0002043506200BF00BF761C1868F0400028F0
:1014000099D15868012802D05868022809D1DC68AF
:10141000186855688543074667433D43556000BFDC
:1014200000BF0020F0BD000008B50549496B01432D
:10143000034A51631146496B0140009100BF08BD4A
:101440000010024008B50549496B0143034A516346
:101450001146496B0140009100BF08BD00100240D9
:1014600070B504467D25ED0029462046FEF740FE76
:10147000401E04494861002088610520086100BFC2
:1014800070BD000000E000E002488068382108409C
:101490007047000000100240024880683821084070
:1014A000704700000010024010B5044600F078FCC0
:1014B0002060206800F04AFC6060606800F05CFC1E
:1014C000A06010BD04484068072149030840400B54
:1014D0008000024908587047001002405C2900084B
:1014E00003494968090C09040143014A51607047E6
:1014F0000010024003498968C908C9000143014A34
:1015000091607047001002404168490849004160FD
:10151000704700000149086070470000C0000020CB
:101520000121C94301617047016849084900016010
:10153000704701680122114301607047416901222F
:10154000114341617047000010B5024613681F48FF
:10155000824202D01E48824205D118467024A04320
:101560004C6820430346194882420BD018488242F7
:1015700008D01848824205D01748824202D0174846
:10158000824206D1184603242402A043CC6820439B
:10159000034613608868D06200BF0888906200BF6D
:1015A0000A48824205D00C48824202D00B4882424F
:1015B00003D1087C106300BF00BF00BF5069012445
:1015C0002043506100BF002010BD0000002C0140EE
:1015D0000004004000200040004401400048014059
:1015E00001460869C007C00F0122504050407047B3
:1015F0000146C868C007C00F0122504050407047E4
:1016000041690122114341617047C16820221143A1
:10161000C1607047FEB505460C46012700262846E6
:1016200000F04EF800282FD1E16860680843216976
:101630000843E968154A11400843E8606869F902FF
:101640008843A16908436861A06829697A039143C6
:101650000143296100BF6069696903221202914355
:101660000143696100BF6846FFF71EFF029E002E1E
:101670000AD02068002807D0002731462846236872
:10168000A26900F024F800BF3846FEBDF3E9FFFF71
:101690000146086802221040400870470146086869
:1016A0000422104080087047014608680822104054
:1016B000C008704701460868202210404009704762
:1016C0000146C868012252031040400B7047FFB525
:1016D00083B00C461D460121C9020598884247D1B6
:1016E0006900192262431046FEF702FD0646642196
:1016F000FEF7FEFC07016900192262431046FEF75F
:10170000F7FC06466900192262431046FEF7F0FC1A
:1017100064210190FEF7ECFC64214843301AC000BC
:1017200032300290FEF7E4FCF821084040003F18F8
:101730006900192262431046FEF7DAFC064669008A
:10174000192262431046FEF7D3FC64210190FEF794
:10175000CFFC64214843301AC00032300290FEF7BB
:10176000C7FC4007400F381881B20398816045E0FC
:10177000A900192262431046FEF7BAFC064664210E
:10178000FEF7B6FC0701A900192262431046FEF7D6
:10179000AFFC0646A900192262431046FEF7A8FCDA
:1017A00064210190FEF7A4FC64214843301A000133
:1017B00032300290FEF79CFCF02108403F18A9004F
:1017C000192262431046FEF793FC0646A90019222F
:1017D00062431046FEF78CFC64210190FEF788FC02
:1017E00064214843301A000132300290FEF780FC39
:1017F0000007000F381881B20398816007B0F0BD70
:1018000008B501460A4A1269009200BF0846421C08
:10181000002A00D0401C07E0054A126901231B047E
:101820001A40002A00D0401E0028F5D108BD000053
:1018300000E000E070B5A0B00026E1235B020222C8
:1018400011460120FFF77EFC0646002E02D0012043
:1018500020B070BD00BF0AA28021684600F080FC65
:101860000446002C09DD802C01DB7F2500E0A5B2B9
:101870002A4669460120FFF70FFC00BF0020E7E77A
:101880004C4F4720696E6974207375636365737389
:101890000D0A000013B515480078002801D1022078
:1018A0001CBD0199009800F089FF002801D1042097
:1018B000F6E70F480078002809D00421684600792F
:1018C0001C2250430B4A801841760020E8E7694605
:1018D000087900F0C3FF002801D10420E0E7694641
:1018E000087900F099FF0020DAE70000E700002007
:1018F000E8000020C401002070B51C4800780028D2
:1019000001D0062070BD002019490870FF20194938
:10191000087019490870002018490870002517E060
:101920001C20684316494418002020606060A060B5
:10193000E0602061204600F0A5FE00206076681C73
:10194000082801D2C0B200E0FF202076681CC5B292
:10195000082DE5DB00F0B4FF002801D00520D1E719
:101960000120034908700020CCE70000E8000020B7
:10197000E7000020E5000020E6000020E400002051
:10198000C4010020FEB5FF2734480078002803D0AA
:1019900033480078002800D0FEBD0120304908708F
:1019A000304805784FE01C2068432F494418267EB4
:1019B00000200290607E042802D1012002902EE0D7
:1019C000607E01282BD100F057FE0190A16800F045
:1019D0003FFF002823D0206801906068009002201B
:1019E0006076019900988847607E042802D1012022
:1019F000029013E02069401C002802D02069401E9C
:101A000020612069002802D10120029006E000F048
:101A100033FEE1684018A0600120607600BF0298A4
:101A200000280DD0FF2F02D10E48067004E01C20C4
:101A300078430D4940180676284600F0EDFE00E098
:101A40002F46354600BFFF2DADD100F03FFE00F020
:101A500065FE00200249087000BF9DE7E7000020F6
:101A6000E8000020E5000020C4010020F8B505468C
:101A70000F461E480078002801D10220F8BD002F33
:101A800004D0284600F07AFE002801D10120F5E7B5
:101A900000F002FE0646FF2E01D10320EEE71C20D7
:101AA000704313494418286820606868606000F03B
:101AB000E3FDA9684018A060E868E060286920613B
:101AC0000C480078002807D0032060760A48007888
:101AD00020760948067004E001206076304600F068
:101AE0008DFE3E71606938600020C7E7E700002086
:101AF000C4010020E8000020E6000020F0B597B007
:101B000005460E462A480078002802D1022017B068
:101B1000F0BD002D01D0002E01D10120F7E7082EE5
:101B200001D90320F3E700243DE02001285802906A
:101B300000200390200140194068059020014019C1
:101B40008068049020014019C0680690E00007AA50
:101B5000811802A8FFF78AFF0746002F22D01DE058
:101B6000641EE00007A940180190037919464379E3
:101B70001B02194383791B041943C27912061143CE
:101B800002461378184653781B02184393781B04B7
:101B90001843D27812061043FFF77CFE002CDFD1E9
:101BA0003846B4E7641CB442BFD30020AFE700005E
:101BB000E700002070470000C206D20E01219140CC
:101BC000014A11607047000080E200E0C206D20EB8
:101BD00001219140014A11607047000000E100E0DE
:101BE00010B5002819DA1A4A03071B0F083B9B0897
:101BF0009B00D2588307DC0EFF23A3409A438B0738
:101C00001B0E8407E40EA3401A43114B0407240F54
:101C1000083CA408A4001A5118E00E4A03231B0232
:101C2000D21883089B00D2588307DC0EFF23A34001
:101C30009A438B071B0E8407E40EA3401A43054BFF
:101C4000032424021B198408A4001A5110BD0000AB
:101C50001CED00E000E100E010B5002819DA1A4A96
:101C600003071B0F083B9B089B00D2588307DC0E21
:101C7000FF23A3409A438B071B0E8407E40EA34067
:101C80001A43114B0407240F083CA408A4001A515E
:101C900018E00E4A03231B02D21883089B00D25877
:101CA0008307DC0EFF23A3409A438B071B0E840798
:101CB000E40EA3401A43054B032424021B19840895
:101CC000A4001A5110BD00001CED00E000E100E08E
:101CD00010B5002819DA1A4A03071B0F083B9B08A6
:101CE0009B00D2588307DC0EFF23A3409A438B0747
:101CF0001B0E8407E40EA3401A43114B0407240F64
:101D0000083CA408A4001A5118E00E4A03231B0241
:101D1000D21883089B00D2588307DC0EFF23A34010
:101D20009A438B071B0E8407E40EA3401A43054B0E
:101D3000032424021B198408A4001A5110BD0000BA
:101D40001CED00E000E100E070470000014600BF2C
:101D5000074880680F22120210401040000A8000DD
:101D6000044A105CC206D20E0846D04070470000FC
:101D700000100240FC280008014600BF06488068A9
:101D8000072212031040000B8000044A105CC206B8
:101D9000D20E0846D0407047001002403C2900088F
:101DA00070B5FFF771FB10280CD004DC002814D0AC
:101DB000082811D104E0182808D020280CD108E008
:101DC000134C22E000F02AF804461EE00124E4034C
:101DD00000BF0124E40300BF00BF00BF0D4800683E
:101DE0000721C9020840C10A012088400546094967
:101DF0004968072252031140490B8900064A50588E
:101E00002946FEF775F9044600BF00BF204670BDA5
:101E100000366E01001002405C29000870B500BF5A
:101E20000948C068C007C00F0546002D04D0012D29
:101E300001D1064C04E000BFFFF744FB044600BF9D
:101E400000BF600070BD00000010024000366E014F
:101E500038B50446207A002804DD3F480078401C4D
:101E60003D4908703C480078642804D30020207263
:101E7000652039490870207A022803DB042060704D
:101E8000002038BD6078002806D0012813D0022831
:101E90002DD0032859D139E020786946FEF7F4FBAC
:101EA0000546A07869460978884203D00120607011
:101EB000002060604DE06068401C606020786946EA
:101EC000FEF7E2FB0546002023490870A07869462A
:101ED0000978884203D100206070606006E0606885
:101EE000322803D3022060700020606031E0207847
:101EF0006946FEF7C9FB0546A0786946097888421D
:101F000003D1032060700020606022E06068401C04
:101F1000606020786946FEF7B7FB054600200E4951
:101F20000870A07869460978884204D00220607061
:101F30000020606008E06068322805D300206070EF
:101F40006060207A401C207203E0002060706060B6
:101F500000BF00BF002094E7DC00002070B50446FD
:101F600020780021FEF76CFC0546002D01D00120F1
:101F700070BD2078A11CFEF787FB0546002D01D01F
:101F80000220F5E70020F3E770B504462046FFF78E
:101F9000E5FF0546002D01D0012070BD0020FCE7C3
:101FA00010B500BF1E48006880210840C009002805
:101FB00016D002211A48FFF797F9012810D1022103
:101FC0001748FFF769F902211548FFF773F900BFB9
:101FD00080201349486000BF0B20FEF7FBFC10BDBA
:101FE00000BF0F480068202108404009002815D094
:101FF00002210B48FFF76CF901280FD10221084894
:10200000FFF74AF902210648FFF754F900BF2020E4
:102010000349486000BF0020FEF7DCFC00BFDEE79C
:102020000000024070477047704700000748406852
:10203000000C000401214903401805494968084380
:1020400002494860C8030349886070470010024095
:10205000000FFF1F00ED00E010B50848FFF7C0FAC1
:10206000002809D00548FFF7C3FA002804D0034828
:10207000FFF756FA00F004F810BD00000020004001
:102080007047000010B50848FFF7AAFA002809D0E9
:102090000548FFF7ADFA002804D00348FFF740FADF
:1020A00000F004F810BD000000440140704700003B
:1020B00010B50848FFF794FA002809D00548FFF743
:1020C00097FA002804D00348FFF72AFA00F004F832
:1020D00010BD0000004801407047000010B50848DE
:1020E000FFF77EFA002809D00548FFF781FA00289B
:1020F00004D00348FFF714FA00F004F810BD000004
:10210000002C014002480068401C014908607047EB
:10211000E000002010B50848FFF762FA002809D057
:102120000548FFF765FA002804D00348FFF7F8F9DF
:1021300000F004F810BD00000004004070470000EB
:1021400010B502490020FEF711FF10BD0038014014
:1021500010B502490120FEF709FF10BD0044004000
:102160000FB41CB50246002007AC00290BD0491E55
:1021700001910092064B6A462146069800F032F81B
:10218000009A002111701CBC08BC04B01847000064
:1021900035250008F8B582B28BB2040C0D0C104640
:1021A0005843002126465E43370C36048019794196
:1021B00016466E43370C36048019794126466E4325
:1021C0008919F8BD02E008C8121F08C1002AFAD117
:1021D00070477047002001E001C1121F002AFBD1A7
:1021E00070470000FFB58FB00546002606E02528A1
:1021F0000AD0129A119990476D1C761C28780028F5
:10220000F5D1304613B0F0BD002402940121B54A47
:10221000009400E004436D1C2B780846203B984056
:102220001042F7D128782A280ED0022228780146B9
:102230003039092916D802990A23594330394018F0
:1022400014436D1C0290F1E7109802C8029110909F
:10225000002904DA0120400304434842029002208E
:1022600004436D1C28782E2817D104200443687875
:102270006D1C2A280CD110986D1C02C8009110907A
:102280000BE000990A225143303940186D1C009030
:102290002878014630390929F3D928786C2810D0DC
:1022A00006DC4C281AD068280ED06A2817D104E022
:1022B000742813D07A2812D110E00120400504437D
:1022C0000CE00121090501E0032109050C436978AF
:1022D000814203D10120000524186D1C6D1C287853
:1022E000692874D006DC00288BD0632827D06428A6
:1022F00006D16CE06E2808D073282CD0752878D0D1
:10230000129A11999047761C5FE06002400F0228F4
:1023100009D003280DD00428109801680DD00E6054
:10232000001D109051E01098F21701680E604A608D
:10233000F6E7109801680E80F2E70E70F0E710984B
:102340006A4601781173001D10900020507303A895
:102350000190012005E0109802C801911090002022
:10236000C04361070CD5002700E07F1C00998F4215
:102370000FDA8742F9DB0199C95D0029F5D108E040
:10238000002700E07F1C8742FCDB0199C95D002922
:10239000F8D102982146C01B0290129B119A00F0BE
:1023A000B3F88019C61907E0019801990078491C13
:1023B0000191129A119990477F1EF5D22146129BE6
:1023C000119A029800F090F886196D1C16E70A2001
:1023D0000190109901C910916102490F032900D1A0
:1023E00000B2042900D140B2002803DA40422D2176
:1023F00003E00DE0210504D52B216A46117301216C
:1024000003E0E10711D02021F7E70CAF0C9114E0B5
:102410000A200190109901C910916102490F032906
:1024200000D180B2042900D1C0B20021EDE70199AA
:10243000FDF75EFE30317F1E39700028F7D104A809
:10244000C01B20300190600704D5012000048443A4
:10245000009801E0012000900199884201DD401AB6
:1024600000E00020411800900C9809180298401ACA
:102470000290E00306D42146129B119A029800F0C4
:1024800043F8861900200D9008E003A9085C129A11
:10249000119990470D98401C761C0D900C9988421C
:1024A000F3DBE0030CD52146129B119A029800F051
:1024B0002BF8861904E0129A302011999047761C67
:1024C0000099481E00900029F5DC05E03878129A42
:1024D0007F1C11999047761C0199481E0190002994
:1024E000F4DC6BE709280100F8B5044600251E4618
:1024F0001746880404D405E039462020B0476D1CF7
:10250000641EF9D52846F8BDFFB50446002581B004
:102510001E46C80301D5302700E02027880404D5D3
:1025200005E038460399B0476D1C641EF9D528466E
:1025300005B0F0BD4A68002A06D00A68531C0B603B
:1025400010704868401E48607047000038B5044667
:1025500069460520FEF798F8002809D168460078FA
:1025600005490978884203D000F086F803490860DD
:10257000FDF766FE38BD0000EC000020F0000020F2
:1025800010B5FFF7FFF910BD70B5A0B0FFF752F915
:10259000FFF7B2F90446002C14D000BF234623A253
:1025A00080216846FFF7DCFD0546002D09DD802D02
:1025B00001DB7F2600E0AEB2324669460120FEF71D
:1025C0006BFD00BFFDF75EFE022200210520FEF735
:1025D0008BF81D490520FEF757F800F04DF81B4910
:1025E0000860FDF785FEFDF729FE002C1BD10121B7
:1025F0001748FFF783FA0446002C14D000BF234687
:1026000014A280216846FFF7ABFD0546002D09DDC9
:10261000802D01DB7F2600E0AEB232466946012004
:10262000FEF73AFD00BF20B070BD0000736368651F
:1026300064756C657220696E6974206661696C6589
:10264000643A2025640D0A00EC000020F000002010
:10265000683200087265676973746572207461730B
:102660006B207461626C65206661696C65643A20F8
:1026700025640D0A00000000014800687047000052
:10268000E00000204169491C41614169002901D1F4
:1026900001214161704700000A480078FF2800D1FD
:1026A0007047084801781C204843074A8018007E7C
:1026B000044A1070FF221C204843034BC0180276C6
:1026C0000846EDE7E4000020C401002070B5FF26B5
:1026D000104804781BE01C2060430F494018057E19
:1026E0001C2060434018407E04280DD1FF2E02D1EB
:1026F0000848057004E01C2070430749401805761F
:10270000204600F089F800E026462C4600BFFF2C4A
:10271000E1D170BDE5000020C401002070B523E0C8
:10272000144804781C20604313494018057E114862
:102730000570FF211C2060430F4A801801761C2081
:10274000604311464018407E042803D1204600F023
:1027500063F808E001211C206043074A8018417695
:10276000204600F04BF800BF02480078FF28D7D180
:1027700070BD0000E6000020C401002001460029D1
:1027800002D00868002801D1002070470A4A8868F2
:10279000904205D8C868904202D80869002801D143
:1027A0000020F2E70869012803D0C868002800D19A
:1027B000EBE70120E9E70000FFFFFF7F03B5684674
:1027C0000079082801D300200CBD684600791C213F
:1027D000484309494018407E002809D068460079DE
:1027E0001C2148430449401840690099884201D09F
:1027F0000020E9E70120E7E7C401002004490A7846
:102800001C214143034BC9180A76014908707047DF
:10281000E5000020C401002070B505461C20684377
:1028200009494418002020606060A060E0602061D9
:102830002046FFF727FF00206076044800782076C6
:102840000248057070BD0000C4010020E4000020B3
:102850000246501AC017401C7047000030B50346AE
:10286000FF221548017823E099421BD1FF2A07D1A6
:102870001C204843114C0019007E0F4C207009E0C9
:102880001C2048430D4C0019047E1C2050430B4D66
:1028900040190476FF241C204843084D4019047653
:1028A000012030BD0A461C204843044C0019017E1B
:1028B000FF29D9D10020F4E7E5000020C401002061
:1028C00010B5012202210448FEF7B4F8002801D017
:1028D000012010BD0020FCE7002C01401820FDF76E
:1028E00019FDFF20F530FEF78BFF3020FDF712FDBC
:1028F000FFF74AFE01E0FFF743FEFCE7000000009F
:1029000000000000000000000000000000000000C7
:1029100000000000000000000000000001000000B6
:102920000200000003000000040000000600000098
:10293000070000000800000009000000000000007F
:102940000000000000000000000000000100000086
:1029500002000000030000000400000000093D0028
:1029600000127A000024F4004086510100366E0106
:1029700000093D0000093D0000093D00081C300031
:102980000000000404040000080000000800000823
:102990000000000800020406080A0C0001020304FB
:1029A000050600000000005001000000000000507B
:1029B0000200000000000050040000000000005071
:1029C000080000000000005010000000000000504F
:1029D00020000000000000504000000000000050F7
:1029E00080000000000000500001000000000050C6
:1029F0000002000000000050000400000000005031
:102A0000000800000000005000100000000000500E
:102A100000200000000000500040000000000050B6
:102A2000008000000004005001000000000400507D
:102A300002000000000400500400000000040050E8
:102A400008000000000400501000000000040050C6
:102A5000200000000004005040000000000400506E
:102A6000800000000004005000010000000400503D
:102A700000020000000400500004000000040050A8
:102A80000008000000040050001000000004005086
:102A9000002000000004005000400000000400502E
:102AA00000800000001400500100000000140050DD
:102AB0000200000000140050040000000014005048
:102AC0000800000000140050100000000014005026
:102AD00020000000001400504000000000140050CE
:102AE000800000000014005000010000001400509D
:102AF0000002000000140050000400000014005008
:102B000000080000001400500010000000140050E5
:102B1000002000000014005000400000001400508D
:102B20000080000000000000000000000000030022
:102B3000010000000005000001000000000000008E
:102B40000008030002000000010500000200000070
:102B50000000000000100300040000000206000056
:102B6000030000000000000000180300080000003F
:102B70000306000004000000000000000100030044
:102B80001000000004070000050000000000000025
:102B900001080100200000000507000006000000F9
:102BA00000000000011001004000000006070000C6
:102BB0000700000000000000011801008000000074
:102BC00007070000080000000000000002000100EC
:102BD00000010000080700001000000001000000D4
:102BE00000000300010000000005000011000000CB
:102BF00001000000000803000200000001050000C1
:102C0000120000000100000000100300040000009A
:102C1000020600001300000001000000001803007D
:102C2000080000000306000014000000010000007E
:102C30000100030010000000040700001500000060
:102C4000010000000108010020000000050700004D
:102C5000160000000100000001100100400000000B
:102C60000607000017000000010000000118010025
:102C700080000000070700001800000001000000AD
:102C80000200010000010000080700002000000011
:102C90000200000000000300010000000005000029
:102CA00021000000020000000008030002000000F4
:102CB00001050000220000000200000000100300D7
:102CC00004000000020600002300000002000000D3
:102CD00000180300080000000306000024000000A4
:102CE00002000000010003001000000004070000C3
:102CF0002500000002000000010801002000000083
:102D0000050700002600000002000000011001007D
:102D1000400000000607000027000000020000003D
:102D200001180100800000000707000028000000D3
:102D3000020000000200010000010000080700007E
:102D4000081C30000000000404040000080000001B
:102D5000080000080000000800020406080A0C0031
:102D600001020304050600000000000000300140DD
:102D70000000005002000000000000000001000000
:102D80000030014000000050040000000A00000074
:102D90000002000000300140000000502000000050
:102DA000000000000003000000300140000000505F
:102DB000000200000A000000000400000030014092
:102DC00000040050080000000000000000010000A6
:102DD0000030014000000050020000000A00000026
:102DE000000200000030014000000050040000001C
:102DF000000000000003000000300140000000500F
:102E0000080000000A00000000040000003001403B
:102E100000000050800000000000000000050000DD
:102E20000030014000000050000100000A000000D6
:102E300000060000003001400000005000100000BB
:102E400000000000000700000030014000040050B6
:102E500020000000000000000001000000300140E0
:102E600000000050010000000A0000000002000005
:102E70000030014000000050400000000000000051
:102E800000030000003001400000005080000000FE
:102E90000A00000000040000003001400000005063
:102EA00000080000000000000005000000300140A4
:102EB00000000050002000000A0000000006000092
:102EC000003001400004005010000000000000002D
:102ED000682D000805000000CC2D00080700000048
:102EE000582E000806000000081C300000000004F6
:102EF00004040000080000000800000800000008AA
:102F000000020406080A0C00010203040506000082
:102F100001000000004400400000005001000000DB
:102F200009000000000100000038014000000050CE
:102F30000400000001000000010100000044004006
:102F40000000005004000000040000000102000026
:102F50000044004000000050100000000900000084
:102F60000003000000380140000000508000000015
:102F70000800000001030000004400400000005071
:102F8000800000000900000000040000003801403B
:102F900000000050000200000100000000050000D9
:102FA000003801400000005000040000080000004C
:102FB0000006000000380140000000500040000002
:102FC0000100000001040000004400400000005027
:102FD0000002000004000000010600000044004060
:102FE0000000005000400000040000000007000046
:102FF00000380140000400504000000000000000C4
:1030000000080000003801400004005000010000EA
:1030100008000000010700000044004000040050C8
:1030200040000000040000000108000000440040CF
:10303000000400500001000004000000010900002D
:10304000004400400014005001000000090000008E
:10305000000A000000380140001400500200000087
:1030600008000000000B0000003801400014005070
:103070000800000000000000010A000000440040B9
:10308000001400500200000004000000010B0000CA
:10309000004400400014005008000000040000003C
:1030A0000100000000440040000000500200000049
:1030B000090000000001000000380140000000503D
:1030C0000800000001000000010100000044004071
:1030D0000000005008000000040000000102000091
:1030E00000440040000000502000000009000000E3
:1030F0000003000000380140000000500001000003
:1031000008000000000400000038014000000050EA
:103110000002000008000000000500000038014027
:103120000000005000040000010000000006000044
:10313000003801400000005000200000080000009E
:10314000000700000038014000000050008000002F
:103150000100000001030000004400400000005096
:1031600000010000090000000105000000440040CB
:1031700000000050000400000400000001070000EF
:1031800000440040000000500080000004000000E7
:103190000008000000380140000400500400000056
:1031A0000000000000090000003801400004005049
:1031B0008000000000000000010800000044004002
:1031C000000400500400000003000000010900009A
:1031D0000044004000040050800000000400000093
:1031E000000A0000003801400014005001000000F7
:1031F00008000000010A00000044004000140050D4
:103200000100000004000000010B00000044004029
:10321000001400500200000009000000010C000032
:1032200000440040001400500400000004000000AE
:10323000102F000814000000A03000081400000047
:10324000081C300000000004040400000800000016
:10325000080000080000000800020406080A0C002C
:1032600001020304050600004D25000801000000CE
:1032700000000000FFFFFFFF983200080000002060
:10328000F4000000C42100088C330008F400002082
:10329000BC050000D4210008000000000000000070
:1032A000000000000000000000000000000000001E
:1032B000000000000000000000000000000000000E
:1032C00000000000000000000000000000000000FE
:1032D00000000000000000000000000000000000EE
:1032E00000000000000000000000000000000000DE
:1032F00000000000000000000000000000000000CE
:1033000000000000000000000000000000000000BD
:1033100000000000000000000000000000000000AD
:10332000000000000000000000000000000000009D
:10333000000000000000000000000000000000008D
:10334000000000000000000000000000000000007D
:10335000000000000000000000127A0000000000E1
:103360000000000006000000000000000000000057
:10337000000000000000000000F0FFFFFFFFFF0062
:0C33800000000000000000000000000041
:04000005080000C12E
:00000001FF
