:020000040800F2
:1000000000070020D5000008F51B00089D1300081C
:1000100000000000000000000000000000000000E0
:100020000000000000000000000000007B2000082D
:1000300000000000000000009D1D00087D20000859
:10004000E7000008E7000008E7000008E7000008F4
:10005000E70000084D05000859050008650500087F
:1000600000000000B1040008450500080000000081
:10007000E700000831210008E70000080000000048
:1000800069210008E700000800000000AD2000081A
:1000900000000000D920000805210008E700000842
:1000A00000000000E7000008E700000895210008B4
:1000B000A521000800000000E70000080000000083
:1000C0000348854600F08EF8004800470902000802
:1000D000000700200448804704480047FEE7FEE789
:1000E000FEE7FEE7FEE7FEE781200008C10000080A
:1000F00030B50B46014600202022012409E00D46C0
:10010000D5409D4205D31D469540491B2546954047
:1001100040191546521E002DF1DC30BDF0B51FB45C
:100120000646002082B005464024019100901BE065
:10013000019922460F46304600F042F8049A059B8A
:10014000801A994110D310461946224600F028F82B
:10015000361A8F410197224601200021009F00F0AE
:100160001FF838184D4100902046641E0028DFDC3F
:10017000019B00982946324607B0F0BDD2B201E09B
:100180000270401C491EFBD270470022F6E710B5F2
:1001900013460A4604461946FFF7F0FF204610BDF5
:1001A00010B5202A04DB0146203A9140002010BD02
:1001B000914020239C1A0346E3401943904010BD10
:1001C00010B5202A04DB0846203AD040002110BD9B
:1001D0000B46D340D0402024A21A91400843194630
:1001E00010BD0000064C0125064E05E0E36807CC73
:1001F0002B430C3C98471034B442F7D3FFF764FF0D
:10020000A03A0008C03A000870B50125ED060024A8
:1002100006E0A0002858A100064A5050601CC4B255
:10022000302CF6DB012040070349886002F068FFAC
:10023000002070BD0000002000ED00E000207047AD
:1002400010B50F4801F02EFE04460D4840780028F6
:100250000FD0022802D004280FD106E0012000F0C0
:100260001DF8002000F02FF807E0002000F016F83D
:1002700003E0012000F027F800BF00BF10BD000020
:10028000F402002010B5052003490870084601F06B
:10029000A5FE002010BD0000F402002010B50446A9
:1002A000012C01D9012010BD002C01D0012000E05B
:1002B00000200146032000F05FFB002801D0012050
:1002C000F1E70020EFE710B50446012C01D9012029
:1002D00010BD002C01D0012000E0002001460420C8
:1002E00000F04AFB002801D00120F1E70020EFE7F1
:1002F00010B50221032000F0DFFA002805D1022109
:10030000042000F0D9FA002801D0012010BD0020FF
:10031000FCE7000010B5044600BF61480068FF21FB
:10032000013108435E49086000BF00BF00BF5C4860
:100330000068012189020840800A0028F6D0102CAC
:100340001CD004DC042C07D0082C38D10BE0182C6E
:100350001FD0302C33D127E052490988C804C00C83
:1003600001F03EFA36E04F498988C904C90C0122E0
:1003700052031143084601F033FA2BE04949098939
:10038000C904C90C012292031143084601F028FA5E
:1003900020E04449098AC904C90C0122D20311434F
:1003A000084601F01DFA15E03E49098AC904C90C46
:1003B0000122D2031143084601F012FA0AE039493A
:1003C000098AC904C90C0122D2031143084601F06D
:1003D00007FA00BF00BF0020314989680F221202CE
:1003E000914301432E4A916000BF302C3BD100BFA6
:1003F000104600680121090688431146086000BFC5
:100400000020C968490849000143D16000BF00BF0E
:10041000104600680121090608431146086000BF24
:1004200000BF00BF1E480068012149060840400E79
:100430000028F6D001201C490968814301431A4A6B
:10044000116000BF00BF00BF17480068C007C00FA1
:100450000028F8D0022001F0CDF900BF01F09CF98E
:100460001028FBD107E0002001F0C4F900BF01F023
:1004700093F90028FBD1002009498968072212035B
:1004800091430143064A916000BF08496143084611
:1004900001F05AF905496143084601F0BBF910BD66
:1004A00000100240000FFF1F0020024040420F00DA
:1004B00010B500BF2148006808210840C008002886
:1004C00016D001211D4801F083F8012810D1012127
:1004D0001A4801F047F80121184801F051F800BF0F
:1004E00008201649486000BF0B2000F011FB10BD2A
:1004F00000BF1248006802210840400800281AD0B6
:1005000001210E4801F058F8012814D101210B48AF
:1005100001F028F80121094801F032F800BF02205B
:100520000649486000BF06480078002801D100F065
:10053000EFFA01F0A1FD00BFD9E700000000024082
:10054000CE00002010B501F055FD10BD10B5012101
:10055000002000F03BF810BD10B50321022000F090
:1005600035F810BD10B50821042000F02FF810BD9B
:1005700070B504460D4600BF13480068A0431249F9
:10058000086000BF00BF08464068A043486000BF45
:10059000002D04D0012D06D0022D0FD107E02046FA
:1005A00001F030F80CE0204601F024F808E0204685
:1005B00001F028F8204601F01DF801E0012070BD8F
:1005C00000BF0020FBE7000000180240F8B5064617
:1005D0000F46354617E0A8000C490C58002C10D0E7
:1005E000E0680B49C9680140814201D1012100E066
:1005F0000021002905D0E06800F0F6FF207800F027
:1006000069F8681CC5B2BD42E5DDF8BDFC000020FC
:100610000018024010B50446002C01D1012010BD85
:1006200005200007844204D1012001F071F8002068
:10063000F5E70948844204D1022001F069F800205E
:10064000EDE70648844204D1202001F061F8002043
:10065000E5E70220E3E7000000040050001400502A
:10066000024600210AE014204843064B185C9042E1
:1006700003D114204843C0187047491C1B29F2D3EA
:100680000020F9E75C33000830B502460B46002B2A
:1006900001D1012030BD302A01D30120FAE7D0007A
:1006A0000B4C01190868002801D10220F2E70C6800
:1006B000486825690540854201D1012500E00025F3
:1006C000002D01D0012000E0002018700020E1E79B
:1006D000DC310008052802D0122802D100E001E038
:1006E00000E000BF00BF7047F7B58AB00746182189
:1006F00004A8FFF74AFD302F02D301200DB0F0BD52
:100700003846FFF7ADFF0446002C01D10220F5E783
:10071000207C800045490858002806D0207C8000B5
:100720000858A04201D00420E8E7F80040494518E5
:100730002868002801D10220E0E72868FFF76AFF57
:100740000646002E01D03046D8E7686804900020A5
:10075000059006900B98002804D0012805D00228A7
:1007600009D105E00020089008E00120089005E08C
:100770000220089002E00020089000BF00BF04A9FA
:10078000286800F047FF002801D00320B6E70120C9
:10079000284909680143274A116011460968014048
:1007A000039100BF00BF61680391A0680102090EB8
:1007B00002910104090E01911F498207120F8A5804
:1007C000019B029999408A43039999400A431A4927
:1007D00083071B0FCA5000BFE0680C99FFF7C8FEE3
:1007E0000646002E01D0304688E7E06800F0FCFEA7
:1007F000E06811492031096801430F4A2032116035
:1008000000BF11202056002101F014FA11202056BB
:10081000C206D20E01219140084A116000BF207C1F
:10082000800002490C50002068E70000FC00002016
:10083000DC310008401002406018024000E100E096
:1008400070B586B005460E46302D02D3012006B0A5
:1008500070BDE800174944182068002801D1022023
:10086000F5E72068FFF7D6FE18216846FFF78DFCF4
:100870006068009000200190002E04D0012E05D069
:10088000022E09D105E00020049008E00120049028
:1008900005E00220049002E00020049000BF00BFA9
:1008A0006946206800F0B6FE002801D00320CEE79C
:1008B0000020CCE7DC310008F3B5A7B00546302DA9
:1008C00002D3012029B0F0BDE80024494418206873
:1008D000002801D10220F5E72068FFF79BFE1821D0
:1008E00021A8FFF752FC606821900120229003208C
:1008F0002390002024902898002804D0012805D0B7
:10090000022809D105E00020259008E0012025906B
:1009100005E00220259002E00020259000BF00BFE6
:1009200021A9206800F076FE002801D00320C9E745
:1009300000BF0BA2802101A801F03CFC0646002E5E
:1009400009DD802E01DB7F2700E0B7B23A4601A91E
:10095000012000F041FC00BF0020B3E7DC310008BB
:100960004750494F206F757420696E697420737504
:1009700063636573730D0A0030B502460B46302A77
:1009800001D3012030BDD000114C011908680028A6
:1009900001D10220F6E7002B04D0012B07D0022B57
:1009A00011D109E04C680868846200BF0DE00C6852
:1009B0004868A06100BF08E04C6808684569654068
:1009C000456100BF01E00120DCE700BF0020D9E75E
:1009D000DC31000870B500BFEFF30580002801D0BE
:1009E000032070BD00BFEFF31080002801D002206B
:1009F000F7E700F089F8002801D10420F1E701F0C1
:100A000045FF002803D100F081F80520E9E772B620
:100A100001F04CFE002806D001F06CFF00F076F8E3
:100A200062B60420DDE7012211461220FFF75CFECA
:100A30000446002C06D001F05DFF00F067F862B6B6
:100A40000120CEE702F0C2F802F01AFA01200007F6
:100A500000F03EFD05460120000700F02BFD01F0EF
:100A600003FE00BF2648006902218843244908612B
:100A700000BF00BF084600690421084320490861FF
:100A800000BF00BF00BF00BFBFF34F8F00BF00BF5C
:100A900000BF30BF00BF00BF00BFBFF36F8F00BFFC
:100AA00000BF00BF00BF0846006904218843144905
:100AB000086100BF00BF1348006801218903884313
:100AC0001049086000BF002000F052FE3020FFF700
:100AD00021FC01F05DFF02F01DF800F017F8002D79
:100AE00003D10120000700F0DDFC62B600BF00BFAB
:100AF00000BFBFF36F8F00BF00BF00BF002070E7D3
:100B000000ED00E0007000400120704770470000D9
:100B100010B5044601210F4800F016FD02210D48D2
:100B200000F012FD00BF0C484068022188430A49CA
:100B3000486000BF084600F067FE084804700020C7
:100B400007490870074908700749087001200749DC
:100B5000087010BD0000024000300140CC000020B1
:100B6000CD000020CE000020C5000020C4000020E1
:100B7000F0B58BB004460D461746142106A8FFF7C2
:100B800004FB012D04D0022D02D001200BB0F0BDDA
:100B900002A9204600F0CAF80646002E01D03046D1
:100BA000F4E703A800F000FE6B4601AA3946059859
:100BB00000F04CF80646002E01D03046E6E720460D
:100BC00000F032FE00BFE06840084000E06000BF77
:100BD000204600F025FE00200990012D00D100E004
:100BE00010200790684681880183008808900021C2
:100BF00008A8017206A9204600F02AFE002801D0AC
:100C00000620C3E7204600F01EFE204600F008FE46
:100C100000216A460820105601F048F86A4608206C
:100C20001056C206D20E01219140074A116000BF42
:100C300000BFE06801210843E06000BF204600F0EB
:100C4000FDFD0020A2E7000000E100E0FFB585B057
:100C50000598002808D00698002805D00798002895
:100C600002D00898002802D1012009B0F0BD0699F1
:100C7000059801F0B9FAFF23F5330022C01851415D
:100C80005A00002301910090FFF748FA04460D46F0
:100C900020462946002358405940084301D10420EA
:100CA000E3E7214900206118684101221204002372
:100CB0000091019008460199FFF730FA0F46064669
:100CC000012109040022881BBA4101D20420CCE78B
:100CD0000222002330463946FFF720FA0019694105
:100CE00032463B4601910090FFF718FA03910290BB
:100CF00000230298584003995940084306D0012226
:100D0000120402990398511A834101D20420ACE7DE
:100D1000701E81B2079801800298401E81B2089827
:100D200001800020A1E70000FFFF000038B5054664
:100D30000C46002D01D1012038BD2448854208D140
:100D4000C01400F0D9FB002C01D00D202070002031
:100D5000F2E71F48854211D102201E49C96B0143A9
:100D60001C4AD1631146C96B0140009100BF00BF0E
:100D7000002C01D0102020700020DDE716488542AD
:100D800008D1C01300F0B8FB002C01D01320207054
:100D90000020D1E71148854209D10120400400F02C
:100DA000ABFB002C01D0152020700020C4E70C48BC
:100DB000854209D10120800400F09EFB002C01D067
:100DC000162020700020B7E70220B5E7002C014074
:100DD0000004004000100240002000400044014098
:100DE0000048014008B50146134881420ED1012058
:100DF0008003124A12680243104B1A601A461268A6
:100E00000240009200BF00BF002008BD0C48814294
:100E100010D101204004094A403AD26B0243074BEB
:100E2000403BDA631A46D26B0240009200BF00BF1B
:100E30000020EAE70220E8E70038014040100240C5
:100E40000044004010B50446002C01D1012010BD23
:100E500005200007844204D1012000F067FC002037
:100E6000F5E70948844204D1022000F05FFC00202D
:100E7000EDE70648844204D1202000F057FC002012
:100E8000E5E70220E3E700000004005000140050F2
:100E900070B505460C46002D14D11748844211D177
:100EA0001B2000F0A9FE01211B2000F03BFF204683
:100EB00000F030FD204600F032FD1B2000F0B0FEB7
:100EC000002070BD012D14D10C48844211D11C208A
:100ED00000F092FE01211C2000F024FF204600F0CB
:100EE00019FD204600F01BFD1C2000F099FE00209B
:100EF000E7E70220E5E70000003801400044004039
:100F0000FFB504460D4600220026002B05D00998A7
:100F1000002802D00A98002802D1012004B0F0BDB8
:100F2000002115E02748006814274F43C05DA04208
:100F30000DD12448006814274F43C0194078A842B7
:100F400005D12048006814274F43C21904E0491C0A
:100F50001C4840688842E5D800BF002116E01948C7
:100F6000806814274F43C05DA0420ED115488068A9
:100F700014274F43C01947780298874205D111487A
:100F8000806814274F43C61904E0491C0D48C06807
:100F90008842E4D800BF002A05D0002E03D0506854
:100FA0007768B84201D00220B8E7104608301860D0
:100FB00030460830099F386057680A98076000205B
:100FC000ACE70000683A000830B587B00446182145
:100FD00001A8FFF7DAF8002C02D1012007B030BDDC
:100FE0002068FFF72FFF0546002D01D02846F5E7C2
:100FF000606801900220029003900020049001207C
:101000000590A068069001A9206800F003FB002865
:1010100001D00320E2E70020E0E7000030B50246FF
:10102000462454430D4D60194024255A4224245A25
:101030002C1BA3B2402B03D301254424255430BDDF
:101040004024245AA406A40E01554024245A641CAA
:10105000A5B24024255200BFF1E700002001002086
:1010600030B503461C010E4D6019047B002C00D1E5
:1010700030BD8468641C8460C4888588AC4206DA0C
:10108000C58804686155C488641CC48001E00124DB
:101090004473002A01D00124847300BFE8E70000F4
:1010A000AC010020002800D100BF7047F8B504460D
:1010B0000D46284600F08EFC002809D1284600F095
:1010C00071FC002804D1284600F078FC002801D0EB
:1010D000012000E000200746284600F087FC002899
:1010E0002CD000BF6868C6B200BFA00025490858D0
:1010F000A84245D1200124494018007B002805D092
:101100003A4631462046FFF7ABFF03E03146204622
:10111000FFF784FF002F0CD020011B494018007BF3
:10112000002806D1012146206043184A801840302B
:10113000017131462046FFF7B5FF21E0002F1FD097
:1011400000BF2868009000BF6868009000BF00BF23
:10115000A0000C490858A84212D120010A494018A1
:10116000007B002805D001202101074A89188873D7
:1011700006E0012146206043044A80184030017196
:10118000F8BD0000D4000020AC01002020010020A8
:10119000002246214143074BC91840310A804621AD
:1011A0004143C91840314A8046214143C918403162
:1011B0000A7170472001002001460A01054BD01832
:1011C000002202608280C280826002734273827356
:1011D00070470000AC010020F7B582B006460F460C
:1011E000022E04D2002F02D00498002802D1012040
:1011F00005B0F0BDB0000F490C58002C01D10520FE
:10120000F6E700250EE00021204600F015F80190D9
:101210000198002801D00198EAE7785D606000BF7E
:10122000681C85B204988542EDDB0121204600F060
:1012300003F8DDE7D400002010B50246104B04E0AF
:10124000002B01D1062010BD5B1E00290AD000BF73
:101250001068402420408009002801D101200BE0C3
:10126000002009E000BF106880242040C009002849
:1012700001D1012000E000200028E1D100BFE2E719
:1012800040420F00FFB58DB005460F461E461C219B
:1012900003A8FEF77AFF022D01D2002E02D1012011
:1012A00011B0F0BD0020A9003B4A50500AA80BA97C
:1012B0000CAB00910190394628460F9AFFF720FEAB
:1012C0000446002C01D02046EAE70A98FFF78AFD81
:1012D0000446002C01D02046E2E70C98FFF774FE8C
:1012E0000446002C01D02046DAE70B98FFF76CFE8D
:1012F0000446002C01D02046D2E70A98C16820227B
:101300009143C16000BF0A984169490849004161A1
:1013100000BF0A98C16812029143C16000BF0396E2
:1013200000200490059006900C2007900020089063
:10133000099003A90A9800F0F7FA002801D00420C8
:10134000AEE70A9801690122D20291430161416925
:1013500008229143416100BF0A98C168920211437B
:10136000C16000BF2846FFF713FF2846FFF724FFA0
:10137000A900094A0A98505028460A99FFF788FDA3
:101380000446002C05D00020A900034A50502046F6
:1013900086E7002084E70000D400002000BFFEE7BD
:1013A000F8B504460025E66800200090204600F0CD
:1013B00051F801284AD10020E16837229201914377
:1013C0000143E16000BF204600F04CF8002808D03F
:1013D000204600F04DF8002819D1204600F04EF8C4
:1013E00015E0E068FF21C1310843E060E0680321B7
:1013F00089020843E06072B600BFA0681449084043
:10140000001DA06000BF204600F038F862B6012041
:10141000C003009005E00098411E0091002800D113
:101420000125204600F024F80128F4D00120C00353
:10143000009005E00098411E0091002800D1012590
:10144000204600F007F80128F4D0E6602846F8BDF1
:10145000EAFFFF7F01468868C007C00F01225040A5
:101460005040704701468868042210408008704749
:101470000146886810221040000970478168024ABE
:101480001140103181607047EAFFFF7F0146044838
:10149000806B0840884201D1012070470020FCE7A2
:1014A000001002400249C96B8143014AD163704771
:1014B0000010024008B50549C96B0143034AD163D6
:1014C0001146C96B0140009100BF08BD00100240E9
:1014D00001460448C06B0840884201D10120704792
:1014E0000020FCE700100240024909688143014ADC
:1014F000116070474010024008B505490968014372
:10150000034A1160114609680140009100BF08BDFF
:101510004010024008B5054909680143034A1160BB
:10152000114609680140009100BF08BD401002400B
:101530000146044800680840884201D101207047F4
:101540000020FCE74010024010B54A1E044B9A5C94
:10155000825853085B004A1E014CA25C835010BDA8
:101560007835000810B54A1E044B9A5C8258022355
:101570009A434B1E014CE35CC25010BD7835000805
:1015800010B54A1E044B9A5C825808239A434B1E9E
:10159000014CE35CC25010BD783500080246481E7D
:1015A000044B185C1058C007C00F01235840584026
:1015B00070470000783A00080246481E034B185C4A
:1015C0001058022318404008704700007835000882
:1015D0000246481E034B185C105808231840C008E8
:1015E00070470000783500080149C8607047000066
:1015F00000180240024949680143014A516070479E
:1016000000180240024909680143014A116070470D
:1016100000180240F0B502460B46002661E00124A6
:10162000B4401968214000295AD0586814680D4602
:101630004D436F00ED19AC430D464D4345432C43DC
:10164000146000BF5868012802D0586802280DD1E4
:10165000986894680D464D436F00ED19AC430D46F4
:101660004D4345432C43946000BF00BF1869D468C4
:101670000D464D436F00ED19AC430D464D434543B8
:101680002C43D46000BF5868022829D1FF2911D803
:101690005869146A0D464D434D434D432F017D1B40
:1016A000AC430D464D434D434D4345432C431462DB
:1016B00000BF15E05F69080A40430C0A60430C0A4A
:1016C00060430401241A506AA0430C0A64430D0AC3
:1016D0006C430D0A6C437C432043506200BF00BF43
:1016E000761C1868F040002899D15868012802D06B
:1016F0005868022809D1DC68186855688543074690
:1017000067433D43556000BF00BF0020F0BD0000AF
:1017100008B50549496B0143034A51631146496BBA
:101720000140009100BF08BD0010024008B5054906
:10173000496B0143034A51631146496B01400091D3
:1017400000BF08BD0010024070B504467D25ED00C5
:1017500029462046FEF7CCFC401E04494861002083
:1017600088610520086100BF70BD000000E000E056
:10177000044909680122520291430143014A116060
:10178000704700000070004002488068382108401F
:10179000704700000010024002488068382108406D
:1017A000704700000010024010B5044600F022FB14
:1017B0002060206800F0F4FA6060606800F006FBCA
:1017C000A06010BD04484068072149030840400B51
:1017D0008000024908587047001002409431000808
:1017E00003494968090C09040143014A51607047E3
:1017F0000010024003498968C908C9000143014A31
:1018000091607047001002404168490849004160FA
:10181000704700000149086070470000C0000020C8
:101820000121C9430161704701684908490001600D
:10183000704701684908490001607047016801224A
:1018400011430160704741690122114341617047B2
:1018500010B5024613681F48824202D01E488242D9
:1018600005D118467024A0434C682043034619480C
:1018700082420BD01848824208D01848824205D0D4
:101880001748824202D01748824206D118460324E4
:101890002402A043CC682043034613608868D062CA
:1018A00000BF0888906200BF0A48824205D00C48F9
:1018B000824202D00B48824203D1087C106300BFF1
:1018C00000BF00BF506901242043506100BF0020C9
:1018D00010BD0000002C014000040040002000402A
:1018E000004401400048014001460869C007C00F9C
:1018F00001225040504070470146C868C007C00FE1
:101900000122504050407047C16801225203914368
:10191000C160704741690122114341617047C1684C
:1019200020221143C1607047FEB505460C460127D1
:101930000026284600F06CF800282FD1E168606886
:10194000084321690843E968154A11400843E860E3
:101950006869F9028843A16908436861A068296938
:101960007A0391430143296100BF606969690322D9
:10197000120291430143696100BF6846FFF714FFFB
:10198000029E002E0AD02068002807D0002731468A
:1019900028462368A26900F049F800BF3846FEBD1A
:1019A000F3E9FFFF01460868022210404008704733
:1019B0000146086802221040400870470146086846
:1019C0000422104080087047014608680422104035
:1019D000800870470146086808221040C008704718
:1019E0000146086808221040C00870470146086890
:1019F000202210404009704701460868202210400C
:101A0000400970470146086840221040800970472D
:101A10000146C868012252031040400B704701463E
:101A2000C868012252031040400B7047FFB583B0D5
:101A30000C461D460121C9020598884247D169001C
:101A4000192262431046FEF753FB06466421FEF757
:101A50004FFB07016900192262431046FEF748FB5D
:101A600006466900192262431046FEF741FB6421D5
:101A70000190FEF73DFB64214843301AC00032302C
:101A80000290FEF735FBF821084040003F1869003E
:101A9000192262431046FEF72BFB06466900192205
:101AA00062431046FEF724FB64210190FEF720FB01
:101AB00064214843301AC00032300290FEF718FB10
:101AC0004007400F381881B20398816045E0A900B3
:101AD000192262431046FEF70BFB06466421FEF70F
:101AE00007FB0701A900192262431046FEF700FB1D
:101AF0000646A900192262431046FEF7F9FA64214E
:101B00000190FEF7F5FA64214843301A00013230A3
:101B10000290FEF7EDFAF02108403F18A9001922C3
:101B200062431046FEF7E4FA0646A9001922624312
:101B30001046FEF7DDFA64210190FEF7D9FA642120
:101B40004843301A000132300290FEF7D1FA000704
:101B5000000F381881B20398816007B0F0BD000013
:101B600008B501460A4A1269009200BF0846421CA5
:101B7000002A00D0401C07E0054A126901231B041B
:101B80001A40002A00D0401E0028F5D108BD0000F0
:101B900000E000E070B5A0B00026E1235B02022265
:101BA00011460120FFF76EFB0646002E02D00120F1
:101BB00020B070BD00BF0AA28021684600F0FAFA8A
:101BC0000446002C09DD802C01DB7F2500E0A5B256
:101BD0002A4669460120FFF7FFFA00BF0020E7E729
:101BE0004C4F4720696E6974207375636365737326
:101BF0000D0A000070470000C206D20E012191407C
:101C0000014A11607047000080E200E0C206D20E77
:101C100001219140014A11607047000080E200E01C
:101C2000C206D20E01219140014A116070470000A6
:101C300000E100E010B5002819DA1A4A03071B0F6B
:101C4000083B9B089B00D2588307DC0EFF23A34070
:101C50009A438B071B0E8407E40EA3401A43114BD3
:101C60000407240F083CA408A4001A5118E00E4AE7
:101C700003231B02D21883089B00D2588307DC0E73
:101C8000FF23A3409A438B071B0E8407E40EA34057
:101C90001A43054B032424021B198408A4001A517B
:101CA00010BD00001CED00E000E100E010B50028D0
:101CB00019DA1A4A03071B0F083B9B089B00D258EE
:101CC0008307DC0EFF23A3409A438B071B0E840778
:101CD000E40EA3401A43114B0407240F083CA40848
:101CE000A4001A5118E00E4A03231B02D2188308DD
:101CF0009B00D2588307DC0EFF23A3409A438B0737
:101D00001B0E8407E40EA3401A43054B0324240250
:101D10001B198408A4001A5110BD00001CED00E03E
:101D200000E100E010B5002819DA1A4A03071B0F7A
:101D3000083B9B089B00D2588307DC0EFF23A3407F
:101D40009A438B071B0E8407E40EA3401A43114BE2
:101D50000407240F083CA408A4001A5118E00E4AF6
:101D600003231B02D21883089B00D2588307DC0E82
:101D7000FF23A3409A438B071B0E8407E40EA34066
:101D80001A43054B032424021B198408A4001A518A
:101D900010BD00001CED00E000E100E07047000015
:101DA000014600BF074880680F2212021040104011
:101DB000000A8000044A105CC206D20E0846D040D9
:101DC000704700000010024034310008014600BF97
:101DD00006488068072212031040000B8000044A66
:101DE000105CC206D20E0846D04070470010024078
:101DF0007431000870B5FFF7C7FC10280CD004DC64
:101E0000002814D0082811D104E0182808D0202870
:101E10000CD108E0134C22E000F02AF804461EE042
:101E20000124E40300BF0124E40300BF00BF00BF9E
:101E30000D4800680721C9020840C10A01208840F6
:101E4000054609494968072252031140490B890098
:101E5000064A50582946FEF74BF9044600BF00BF1A
:101E6000204670BD00366E0100100240943100081B
:101E700070B500BF0948C068C007C00F0546002DF7
:101E800004D0012D01D1064C04E000BFFFF79AFCFD
:101E9000044600BF00BF600070BD0000001002409B
:101EA00000366E0138B50446207A002804DD3F482C
:101EB0000078401C3D4908703C480078642804D3F1
:101EC00000202072652039490870207A022803DB3F
:101ED00004206070002038BD6078002806D00128FA
:101EE00013D002282DD0032859D139E02078694633
:101EF000FEF7CAFB0546A07869460978884203D0F8
:101F000001206070002060604DE06068401C6060EF
:101F100020786946FEF7B8FB054600202349087083
:101F2000A07869460978884203D10020607060601B
:101F300006E06068322803D30220607000206060F1
:101F400031E020786946FEF79FFB0546A078694698
:101F50000978884203D1032060700020606022E08D
:101F60006068401C606020786946FEF78DFB05467E
:101F700000200E490870A07869460978884204D08C
:101F8000022060700020606008E06068322805D39D
:101F9000002060706060207A401C207203E0002006
:101FA0006070606000BF00BF002094E7DC0000208C
:101FB00070B5044620780021FEF742FC0546002D4E
:101FC00001D0012070BD2078A11CFEF75DFB054605
:101FD000002D01D00220F5E70020F3E770B504469C
:101FE0002046FFF7E5FF0546002D01D0012070BD1A
:101FF0000020FCE710B500BF1E48006880210840A3
:10200000C009002816D002211A48FFF7E1FA01287A
:1020100010D102211748FFF7A5FA02211548FFF752
:10202000AFFA00BF80201349486000BF0B20FEF7C5
:102030006FFD10BD00BF0F48006820210840400917
:10204000002815D002210B48FFF7B6FA01280FD15E
:1020500002210848FFF786FA02210648FFF790FAA6
:1020600000BF20200349486000BF0020FEF750FD5C
:1020700000BFDEE700000240704770477047000075
:1020800007484068000C0004012149034018054935
:102090004968084302494860C8030349886070479B
:1020A00000100240000FFF1F00ED00E010B50848CF
:1020B000FFF71AFC002809D00548FFF71DFC00288F
:1020C00004D00348FFF7ACFB00F004F810BD00009B
:1020D000002000407047000010B50848FFF704FCDE
:1020E000002809D00548FFF707FC002804D0034862
:1020F000FFF796FB00F004F810BD0000004401401B
:102100007047000010B50848FFF7EEFB002809D023
:102110000548FFF7F1FB002804D00348FFF780FBD8
:1021200000F004F810BD00000048014070470000B6
:1021300010B50848FFF7D8FB002809D00548FFF77D
:10214000DBFB002804D00348FFF76AFB00F004F82B
:1021500010BD0000002C014002480068401C0149ED
:1021600008607047F000002010B50848FFF7BCFB7E
:10217000002809D00548FFF7BFFB002804D003481A
:10218000FFF74EFB00F004F810BD00000004004013
:102190007047000010B502490020FEF787FF10BD10
:1021A0000038014010B502490120FEF77FFF10BD45
:1021B000004400400FB41CB50246002007AC0029C3
:1021C0000BD0491E01910092064B6A4621460698A3
:1021D00000F032F8009A002111701CBC08BC04B059
:1021E0001847000089250008F8B582B28BB2040CAC
:1021F0000D0C10465843002126465E43370C36042A
:102200008019794116466E43370C3604801979419E
:1022100026466E438919F8BD02E008C8121F08C19E
:10222000002AFAD170477047002001E001C1121F57
:10223000002AFBD170470000FFB58FB0054600268D
:1022400006E025280AD0129A119990476D1C761C39
:1022500028780028F5D1304613B0F0BD0024029450
:102260000121B54A009400E004436D1C2B78084618
:10227000203B98401042F7D128782A280ED002221D
:10228000287801463039092916D802990A2359437A
:102290003039401814436D1C0290F1E7109802C8C1
:1022A00002911090002904DA0120400304434842BF
:1022B0000290022004436D1C28782E2817D1042098
:1022C000044368786D1C2A280CD110986D1C02C834
:1022D000009110900BE000990A22514330394018C8
:1022E0006D1C00902878014630390929F3D92878E7
:1022F0006C2810D006DC4C281AD068280ED06A282A
:1023000017D104E0742813D07A2812D110E00120EC
:10231000400504430CE00121090501E00321090502
:102320000C436978814203D10120000524186D1CFB
:102330006D1C2878692874D006DC00288BD06328AF
:1023400027D0642806D16CE06E2808D073282CD0E2
:10235000752878D0129A11999047761C5FE0600238
:10236000400F022809D003280DD0042810980168D6
:102370000DD00E60001D109051E01098F21701680A
:102380000E604A60F6E7109801680E80F2E70E7062
:10239000F0E710986A4601781173001D1090002034
:1023A000507303A80190012005E0109802C8019124
:1023B00010900020C04361070CD5002700E07F1C6F
:1023C00000998F420FDA8742F9DB0199C95D002934
:1023D000F5D108E0002700E07F1C8742FCDB019973
:1023E000C95D0029F8D102982146C01B0290129BBA
:1023F000119A00F0B3F88019C61907E00198019905
:102400000078491C0191129A119990477F1EF5D2CC
:102410002146129B119A029800F090F886196D1CC3
:1024200016E70A200190109901C910916102490F25
:10243000032900D100B2042900D140B2002803DAF8
:1024400040422D2103E00DE0210504D52B216A46F1
:102450001173012103E0E10711D02021F7E70CAF50
:102460000C9114E00A200190109901C910916102A9
:10247000490F032900D180B2042900D1C0B2002144
:10248000EDE70199FDF734FE30317F1E39700028E9
:10249000F7D104A8C01B20300190600704D50120AB
:1024A00000048443009801E00120009001998842D3
:1024B00001DD401A00E00020411800900C98091836
:1024C0000298401A0290E00306D42146129B119A0A
:1024D000029800F043F8861900200D9008E003A947
:1024E000085C129A119990470D98401C761C0D902B
:1024F0000C998842F3DBE0030CD52146129B119A1C
:10250000029800F02BF8861904E0129A30201199F5
:102510009047761C0099481E00900029F5DC05E0E4
:102520003878129A7F1C11999047761C0199481EA1
:1025300001900029F4DC6BE709280100F8B5044696
:1025400000251E461746880404D405E0394620209D
:10255000B0476D1C641EF9D52846F8BDFFB504468A
:10256000002581B01E46C80301D5302700E0202792
:10257000880404D505E038460399B0476D1C641EF5
:10258000F9D5284605B0F0BD4A68002A06D00A6889
:10259000531C0B6010704868401E48607047000074
:1025A00038B5044669460520FEF76EF8002809D1C3
:1025B0006846007805490978884203D000F04EF853
:1025C00003490860FDF73CFE38BD0000F400002020
:1025D000F800002010B500F0CBFC00F03FF80E49E9
:1025E0000968401A0D49884215D300F037F80A49A6
:1025F00008600120FDF752FE0120FDF764FEFEF7A2
:10260000E9F90446002C06D100F028F802490860D8
:102610000020FDF743FE10BDF8000020204E000012
:1026200010B5FFF7B7FA00F003FDFDF72BFE02220D
:1026300000210520FEF758F806490520FEF724F88A
:1026400000F00CF804490860FDF752FEFDF7F6FDB6
:1026500010BD0000F4000020F800002001480068D0
:1026600070470000F000002010B501204002FFF785
:102670007FF800BF0448006801218903084302492C
:10268000086000BF10BD0000007000400146064811
:102690000068CB06DB0E01229A401040002801D0D2
:1026A000012070470020FCE700E100E010B50120A8
:1026B0000005FEF73DFF00280FD06D48FEF7D2FE63
:1026C000002808D16B48C06A002806D06848FEF789
:1026D000C1FE002801D0012010BD01200003FEF73B
:1026E00027FF002818D000BF634880688021084079
:1026F000C00900280ED100BF5F4880680321C902CD
:102700000840002806D100BF5B4880688910084057
:10271000002801D00120DFE701200003FEF708FFB9
:10272000002818D0544840688007800F002812D035
:102730000120FEF7ABFE00280DD001214F48FEF727
:102740002DFF002805D102214C48FEF727FF002865
:1027500001D00120C0E701204005FEF7B9FE0028A6
:1027600013D000BF46480068C007C00F0121484091
:102770004840002809D000BF414880690221084034
:102780004008002801D00120A6E701208003FEF7C1
:10279000CFFE002825D03B48FFF741F9002820D084
:1027A0003848C06808210840002804D03548FFF7A1
:1027B00029F9002813D03348FFF71EF900280ED15D
:1027C0003048FFF70DF9002809D12E48FFF7F0F83F
:1027D000002804D12B48FFF7F7F8002801D001208A
:1027E0007AE701204004FEF773FE002825D0264832
:1027F000FFF715F9002820D02348C06808210840B9
:10280000002804D02048FFF7FDF8002813D01E4808
:10281000FFF7F2F800280ED11B48FFF7E1F8002877
:1028200009D11948FFF7C4F8002804D11648FFF76A
:10283000CBF8002801D001204EE70120FEF726FE4C
:10284000002813D001210D48FEF7A8FE00280BD167
:1028500002210A48FEF7A2FE002805D103210748FD
:10286000FEF79CFE002801D0012035E7002033E769
:1028700000240140CC010020003001400000024053
:1028800000540040003801400044004010B50020D2
:102890001649C86201200005FEF74AFE002801D152
:1028A000012010BD1248FEF7DDFD002801D00020F8
:1028B000F7E70F48FEF7CEFD0C4908630C48406867
:1028C00048630120C8620020094948600748006B3E
:1028D000002808D00846FEF763FD002803D000F06A
:1028E00009F80020DDE70120DBE70000CC01002033
:1028F0000024014010B51848C06A002800D110BD5E
:1029000001200005FEF714FE002803D10120000578
:10291000FEF700FE1048006B002813D00F48FEF7AA
:1029200099FD00280ED100BF0C4880680C49084072
:10293000401C0A49886000BF002401E000BF641CFD
:10294000FF2CFBD90448406B044948600020024931
:10295000C86200BFD3E70000CC0100200024014082
:10296000EAFFFF7F10B5044600202056FFF74EF91E
:102970006068002809D000202056C206D20E01212E
:102980009140024A116000BF00BF10BD00E100E0AD
:1029900008B54248006800280DD040490868404901
:1029A000896B01433E4A91631146896B0140009156
:1029B00000BF00BF00BF39484068002803D0374936
:1029C0004868FEF777FD35488068002803D0334912
:1029D0008868FEF79FFD31480078C007C00F0028C7
:1029E00009D02E48806B2F4988602C48C06BC86185
:1029F0002A48006C086329486430FFF7B3FF274872
:102A00006C30FFF7AFFF25484068012149050840B9
:102A1000002806D021488069234948601F48406942
:102A200008601E484C30FFF79DFF1C48406801219C
:102A300049040840002806D01848806A1B494861AC
:102A40001648406AC86015485C30FFF78BFFFFF7F7
:102A500051FF12488068012109030840002806D070
:102A60000E480069124948600C48C06808600B486D
:102A70004430FFF777FF0948806801218903084047
:102A8000002806D00548006A0A4948610348C06921
:102A9000C86002485430FFF765FF08BDCC01002034
:102AA000001002400000024000540040004400407A
:102AB0000030014000380140FFB581B005460E46A8
:102AC0001F460B9C2068002813D03046039900F065
:102AD00034FA0020E8602846FEF7ABFE00202861AB
:102AE000E06828620A98002801D020696864A0681C
:102AF000E86020461430FFF735FF002F03DB204647
:102B00001C30FFF72FFF2068002801D06068286084
:102B100005B0F0BD1CB5184801210E23CA02009172
:102B200001901648FFF7C8FF154800214B1E0222EE
:102B3000009101901348FFF7BFFF134800214B1E7F
:102B40000122D2030091019001211048FFF7B4FF48
:102B50000F4801218B1E4A04009101900D48FFF798
:102B6000ABFF0D4801218B1E8A04009101900B4898
:102B7000FFF7A2FF1CBD000040020020002C014016
:102B80006402002000040040880200200020004071
:102B9000AC02002000440140D00200200048014067
:102BA00070B505460C462C702046FFF76FFD686037
:102BB00000BFE106C90E012088400349086000BF3C
:102BC0002046FFF723F870BD80E100E010B500203B
:102BD0008449086048608860092182486430FFF7B2
:102BE000DFFF0A217F486C30FFF7DAFF0120FEF794
:102BF0004DFC00282DD07B4800680121084379490D
:102C000008607948806888637748C069C8637648F7
:102C1000006B0864744880680E218843724988609C
:102C20000846C0690E2188436F49C8610846006B99
:102C30000E2188436C49086300BF0120486000BF33
:102C400000BF1020486000BF00BF0001486000BF07
:102C500000BF172163484C30FFF7A2FF0120400559
:102C6000FEF736FC00281BD05E484068012149056C
:102C700008435C4948605D48006848615B484068BB
:102C800088615A4840680F210902884357494860C3
:102C900000BF0846006840084000086000BF00BF51
:102CA0001C2150485C30FFF77BFF01204004FEF7F9
:102CB0000FFC00281CD04B48406801214904084300
:102CC000484948604A48C068486249484069886243
:102CD0004748406947490840454948610846C06837
:102CE000FF21F13188434249C8600846FEF70CFED7
:102CF00001200005FEF71CFC002806D0394880683A
:102D000001210905084337498860192135484430B5
:102D1000FFF746FF01200003FEF70AFC00281BD046
:102D2000304880680121090308432E4988603248F1
:102D30000068C8603048406808612F484068E32157
:102D400088432D49486000BF0846006840218843F9
:102D50002949086000BF00BF1B2122485430FFF7FB
:102D60001FFF01208003FEF7E3FB00281CD01D4855
:102D700080680121890308431A4988601F48C06898
:102D8000C8611E48406908621C48406919490840EA
:102D90001A4948610846C068FF21F1318843174944
:102DA000C8600846FEF7B0FD0E480068002808D04D
:102DB0000C4908681249896B8143114A916300BF2D
:102DC00000BF08484068002803D006494868FEF75D
:102DD00069FB04488068002803D002498868FEF730
:102DE00083FB10BDCC0100200000024000540040D5
:102DF000004400403EFBFFFF00300140003801402E
:102E000000100240FFB581B004460E460A9F0C9D9B
:102E10003046039900F09EF8286028461430049943
:102E2000FFF7BEFE002F04DB79B228461C30FFF707
:102E3000B7FE2868002801D105B0F0BD20686860A1
:102E4000E068A860206AE8600B98002801D0606CF8
:102E500028610020E0602046FEF7EBFC00202062A5
:102E60000B98002804D0606C0121C903884360647A
:102E7000002020613046039900F052F800BFDBE7E4
:102E80000EB51D4801210E220D23009201910290E2
:102E9000CA021A48FFF7B6FF194800214A1E10233C
:102EA00000920191029002221648FFF7ABFF1648EC
:102EB00000214A1E13230092019102900122D203A5
:102EC00001211248FFF79EFF114801218A1E152398
:102ED0000092019102904A040E48FFF793FF0E48BA
:102EE00001218A1E16230092019102908A040B4848
:102EF000FFF788FF0EBD000040020020002C0140BB
:102F000064020020000400408802002000200040ED
:102F1000AC02002000440140D002002000480140E3
:102F200070B505460C46002D03D12046FEF7BAFACF
:102F300002E02046FEF7D8FA70BD70B505460C4693
:102F4000002D03D12046FEF7B5FA02E02046FEF739
:102F5000E1FA70BD70B504460D46002C03D1284639
:102F6000FEF7B6FA70BD2846FEF7E2FAFAE700006F
:102F700010B5FFF773FB2849086008460068274929
:102F80000968884246D02448006824490968441AE0
:102F9000214800682149086000F0C3F820480088F3
:102FA00000191F49088008460088322804DB00F019
:102FB000BFF800201A4908801A48008800191949EA
:102FC000088008460088642804DB00F0A9F8002087
:102FD00014490880144800880019134908800846DD
:102FE0000088FF21F531884204DB00F0A0F80020C2
:102FF0000D4908800D48008800190C4908800846D2
:1030000000887D21C900884204DB00F08FF8002091
:103010000649088010BD0000E0000020E400002008
:10302000E8000020EA000020EC000020EE00002074
:1030300030B5A1B000F056F8002816D000BF1AA293
:10304000802101A8FFF7B6F80446002C09DD802C8A
:1030500001DB7F2500E0A5B22A4601A90120FEF789
:10306000BBF800BF012021B030BDFFF7F7FA1649C9
:103070000860084600681549086000BF14A2802156
:1030800001A8FFF797F80446002C09DD802C01DB2E
:103090007F2500E0A5B22A4601A90120FEF79CF891
:1030A00000BF0020DFE700006C6567616379204D99
:1030B0004147207469636B20696E69742066616999
:1030C0006C65640D0A000000E0000020E4000020B0
:1030D0007461736B20696E697420737563636573C3
:1030E000730D0A0010B5012202210448FDF740FDCE
:1030F000002801D0012010BD0020FCE7002C014079
:103100001820FDF707F9FF20F530FEF729FD3020E4
:10311000FDF700F9FFF784FA01E0FFF75BFAFCE73F
:10312000704710B50020FFF73BFA10BD704770479D
:1031300070470000000000000000000000000000D8
:10314000000000000000000000000000000000007F
:103150000000000001000000020000000300000069
:103160000400000006000000070000000800000046
:103170000900000000000000000000000000000046
:103180000000000001000000020000000300000039
:103190000400000000093D0000127A000024F40041
:1031A0004086510100366E0100093D0000093D00D6
:1031B00000093D00081C3000000000040404000069
:1031C00008000000080000080000000800020406D3
:1031D000080A0C000102030405060000000000506C
:1031E000010000000000005002000000000000503C
:1031F0000400000000000050080000000000005023
:1032000010000000000000502000000000000050EE
:10321000400000000000005080000000000000504E
:1032200000010000000000500002000000000050FB
:1032300000040000000000500008000000000050E2
:1032400000100000000000500020000000000050AE
:10325000004000000000005000800000000400500A
:1032600001000000000400500200000000040050B3
:10327000040000000004005008000000000400509A
:103280001000000000040050200000000004005066
:1032900040000000000400508000000000040050C6
:1032A0000001000000040050000200000004005073
:1032B000000400000004005000080000000400505A
:1032C0000010000000040050002000000004005026
:1032D0000040000000040050008000000014005076
:1032E0000100000000140050020000000014005013
:1032F00004000000001400500800000000140050FA
:1033000010000000001400502000000000140050C5
:103310004000000000140050800000000014005025
:1033200000010000001400500002000000140050D2
:1033300000040000001400500008000000140050B9
:103340000010000000140050002000000014005085
:103350000040000000140050008000000000000049
:103360000000000000000300010000000005000054
:10337000010000000000000000080300020000003F
:103380000105000002000000000000000010030022
:10339000040000000206000003000000000000001E
:1033A00000180300080000000306000004000000ED
:1033B00000000000010003001000000004070000EE
:1033C00005000000000000000108010020000000CE
:1033D00005070000060000000000000001100100C9
:1033E0004000000006070000070000000000000089
:1033F000011801008000000007070000080000001D
:1034000000000000020001000001000008070000A9
:103410001000000001000000000003000100000097
:10342000000500001100000001000000000803007A
:103430000200000001050000120000000100000071
:10344000001003000400000002060000130000004A
:10345000010000000018030008000000030600003F
:103460001400000001000000010003001000000033
:103470000407000015000000010000000108010021
:1034800020000000050700001600000001000000F9
:1034900001100100400000000607000017000000B6
:1034A0000100000001180100800000000707000073
:1034B00018000000010000000200010000010000EF
:1034C00008070000200000000200000000000300C8
:1034D00001000000000500002100000002000000C3
:1034E00000080300020000000105000022000000A7
:1034F00002000000001003000400000002060000AB
:103500002300000002000000001803000800000073
:103510000306000024000000020000000100030078
:103520001000000004070000250000000200000059
:10353000010801002000000005070000260000002F
:10354000020000000110010040000000060700001A
:1035500027000000020000000118010080000000A8
:103560000707000028000000020000000200010020
:103570000001000008070000081C300000000004E3
:103580000404000008000000080000080000000813
:1035900000020406080A0C000102030405060000EC
:1035A0000000000000300140000000500200000058
:1035B0000000000000010000003001400000005049
:1035C000040000000A00000000020000003001407A
:1035D0000000005020000000000000000003000078
:1035E0000030014000000050000200000A0000000E
:1035F00000040000003001400004005008000000FA
:1036000000000000000100000030014000000050F8
:10361000020000000A00000000020000003001402B
:103620000000005004000000000000000003000043
:103630000030014000000050080000000A000000B7
:103640000004000000300140000000508000000035
:1036500000000000000500000030014000000050A4
:10366000000100000A0000000006000000300140D8
:1036700000000050001000000000000000070000E3
:103680000030014000040050200000000000000055
:103690000001000000300140000000500100000067
:1036A0000A0000000002000000300140000000504D
:1036B0004000000000000000000300000030014056
:1036C00000000050800000000A000000000400001C
:1036D0000030014000000050000800000000000021
:1036E00000050000003001400000005000200000F4
:1036F0000A000000000600000030014000040050F5
:103700001000000000000000A035000805000000C7
:10371000043600080700000090360008060000008C
:10372000081C300000000004040400000800000031
:10373000080000080000000800020406080A0C0047
:1037400001020304050600000100000000440040DF
:10375000000000500100000009000000000100000E
:10376000003801400000005004000000010000008B
:10377000010100000044004000000050040000006F
:10378000040000000102000000440040000000505E
:103790001000000009000000000300000038014094
:1037A000000000508000000008000000010300003D
:1037B00000440040000000508000000009000000AC
:1037C000000400000038014000000050000200002A
:1037D000010000000005000000380140000000501A
:1037E000000400000800000000060000003801404E
:1037F0000000005000400000010000000104000033
:1038000000440040000000500002000004000000DE
:10381000010600000044004000000050004000008D
:1038200004000000000700000038014000040050C0
:1038300040000000000000000008000000380140C7
:103840000004005000010000080000000107000013
:10385000004400400004005040000000040000004C
:103860000108000000440040000400500001000076
:103870000400000001090000004400400014005052
:103880000100000009000000000A000000380140AB
:10389000001400500200000008000000000B0000AF
:1038A0000038014000140050080000000000000033
:1038B000010A000000440040001400500200000013
:1038C00004000000010B0000004400400014005000
:1038D0000800000004000000010000000044004057
:1038E000000000500200000009000000000100007C
:1038F00000380140000000500800000001000000F6
:1039000001010000004400400000005008000000D9
:1039100004000000010200000044004000000050CC
:1039200020000000090000000003000000380140F2
:10393000000000500001000008000000000400002A
:1039400000380140000000500002000008000000A4
:103950000005000000380140000000500004000095
:103960000100000000060000003801400000005087
:10397000002000000800000000070000003801409F
:103980000000005000800000010000000103000062
:103990000044004000000050000100000900000049
:1039A0000105000000440040000000500004000039
:1039B0000400000001070000004400400000005027
:1039C00000800000040000000008000000380140F2
:1039D0000004005004000000000000000009000086
:1039E000003801400004005080000000000000008A
:1039F00001080000004400400004005004000000E2
:103A000003000000010900000044004000040050D1
:103A10008000000004000000000A0000003801409F
:103A2000001400500100000008000000010A00001E
:103A30000044004000140050010000000400000099
:103A4000010B000000440040001400500200000080
:103A500009000000010C0000004400400014005068
:103A600004000000040000004837000814000000B3
:103A7000D838000814000000081C300000000004C2
:103A8000040400000800000008000008000000080E
:103A900000020406080A0C000102030405060000E7
:103AA000C03A000800000020FC00000018220008B6
:103AB000BC3B0008FC00002004060000282200088F
:103AC00000000000000000000000000000000000F6
:103AD00000000000000000000000000000000000E6
:103AE00000000000000000000000000000000000D6
:103AF00000000000000000000000000000000000C6
:103B000000000000000000000000000000000000B5
:103B100000000000000000000000000000000000A5
:103B20000000000000000000000000000000000095
:103B30000000000000000000000000000000000085
:103B40000000000000000000000000000000000075
:103B50000000000000000000000000000000000065
:103B60000000000000000000000000000000000055
:103B70000000000000000000000000000000000045
:103B800000127A00000000000000000006000000A3
:103B90000000000000000000000000000000000025
:103BA0000000000000000000000000000000000015
:0C3BB00000F0FFFF00000000000000001B
:04000005080000C12E
:00000001FF
